:020000001E29B7
:0E000600213083120313FD00FD0B07280800B4
:100014000F3083120313FC004730FD00FD0B102842
:0A002400FC0B10280000000008008B
:06002E00000000000800C4
:1000340083160313C41B21288312861323288312D7
:1000440086178316441B2928831206132B28831230
:1000540006178316C41A3128831286123328831292
:1000640086168316441A3928831206123B288312F3
:1000740006166F183F280615402806118615172006
:1000840086118316C4194928831286134B288312B8
:100094008617831644195128831206135328831292
:1000A40006178316C4185928831286125B288312F4
:1000B4008616831644186128831206126328831255
:1000C40006166F1867280615682806118615172066
:0E00D40086116F1C6F280A2070280320080078
:0E00E200831203136E088A006D088200080066
:1000F000831203136F1083164308C4001A206F1471
:020100000800F5
:10010200831603138611061106128612061386132E
:1001120083128611061186130613861206120A200E
:100122000A200A20861606168615172086110A202E
:100132008615172086110A208615172086110A2097
:1001420006128615172086110A2086151720861199
:10015200861286178615172086110A208613061620
:1001620086151720861106128615172086110A2079
:1001720086151720861106168615172086110A2065
:10018200061286151720861186170617861606167A
:0C0192008615172086110A206F14080043
:10019E00E128803083160313BF00F428C030BF005F
:1001AE00F4289430BF00F428D430BF00F4288030F7
:1001BE00BF00F428831603133F08013A0319D02811
:1001CE003F08023A0319D5283F08033A0319D828E5
:1001DE003F08043A0319DB28DE284003F0003F08ED
:1001EE00F0077008BF007008C4001A206F10831645
:1001FE00C201420841078400000803190F29420872
:10020E00410784000008C30078208316C20A002923
:06021E0083126F140800BA
:1002240071208A110A128000840AED0A0319EE0A69
:08023400F003031D122908006C
:10023C004E2383160313B901BA011030BB000030F2
:10024C00BC00BD01BE0107309C0006309F000F3082
:10025C008500831285018801870183168601870139
:10026C00803088008312081588178120013083168E
:10027C00C4001A200C308316C4001A2001308316D7
:10028C00BF000130C000A030C100CF200230831667
:10029C00BF000130C000A830C100CF200630FB00E9
:1002AC001330FC00AD30FD00FD0B5A29FC0B5A2914
:1002BC00FB0B5A290000000001308316C4001A20E1
:1002CC0001308316BF000130C0004930C100CF207F
:1002DC0002308316BF000130C0003930C100CF207E
:1002EC000630FB001330FC00AD30FD00FD0B7C290B
:1002FC00FC0B7C29FB0B7C29000000008316B90148
:10030C00BA0180303A06F00080307002031D90294B
:10031C000F3039020318A8291C30C4001A200230EF
:10032C00FB004530FC00A930FD00FD0B9B29FC0BAC
:10033C009B29FB0B9B29000000008316B90A0319AB
:10034C00BA0A8729B901BA0183160130C4001A20F0
:10035C0001308316BF000130C0005230C100CF20E5
:10036C0002308316BF000130C0006330C100CF20C3
:10037C008030F000803083163C067002031DC829C3
:10038C003B08003C0318D229831208150130831650
:10039C00BB02031CBC03D429831208118030F0006B
:1003AC00803083163E067002031DDE293D08003C9A
:1003BC000318F629831208140230FB004530FC00A8
:1003CC00A930FD00FD0BE829FC0BE829FB0BE82903
:1003DC0000000000081001308316BD02031CBE0390
:1003EC008312881BFE2910308316BB000030BC0022
:1003FC00831205080F3A031D2C2A8814013083162A
:10040C00BF000830C0005A30C100CF200230831624
:10041C00BF000730C0006A30C100CF200130870018
:10042C00003083163A06031D1D2A00303906031DC1
:10043C00272A1030BB000030BC000330BD00003058
:10044C00BE000130B9000030BA00D32A831205086F
:10045C000E3A031D552A01308316BF000830C00028
:10046C003130C100CF20003083163A06031D402ADC
:10047C0001303906031D4A2A0230BF000730C00084
:10048C006A30C100CF20522A02308316BF000730D9
:10049C00C0003530C100CF2003308700D32A0508B7
:1004AC000C3A031D7D2A01308316BF000830C000B2
:1004BC002A30C100CF20003083163A06031D682A6B
:1004CC0001303906031D722A0230BF000730C0000C
:1004DC006A30C100CF207A2A02308316BF00073061
:1004EC00C0003530C100CF2007308700D32A050863
:1004FC00083A031DA52A01308316BF000830C0003E
:10050C002030C100CF20003083163A06031D902AFC
:10051C0001303906031D9A2A0230BF000730C00093
:10052C006A30C100CF20A22A02308316BF000730E8
:10053C00C0003530C100CF200F308700D32A05080A
:10054C00003A031DD12A01308316BF000830C000C9
:10055C002530C100CF2002308316BF000730C00009
:10056C003530C100CF208810003083163A06031DA9
:10057C00C12A01303906031DCB2A1030BB000030D4
:10058C00BC000330BD000030BE00B901BA011F3001
:10059C0083128700D32A0F3085000230FB004530D0
:1005AC00FC00A930FD00FD0BD92AFC0BD92AFB0B52
:0A05BC00D92A00000000AA29E22A53
:10069C00203084004A3083120313F000E830ED0060
:1006AC000230EE001221A030840008300313F00059
:1006BC004330ED000330EE0012216A308400033029
:1006CC000313F0004B30ED000330EE001221A83084
:1006DC00840011300313F0003230ED000330EE00D3
:0406EC0012210800CF
:0A05D000483469346734683400349D
:0A05DA00463475346C346C34003480
:0E05E4004D3465346434693475346D3400343C
:0805F2004C346F3477340034FF
:0805FA004F344634463400344E
:100602002D342D342D342D342D342D342D342D34E0
:100612002D342D342D342D342D342D342D340034FD
:10062200473452344F345534503420343034383413
:02063200003492
:100634004C346534763465346C343A3420340034C4
:10064400563465347234793420344C346F3477340E
:02065400003470
:0E0656004D346F3474346F34723420340034F9
:1006640044346534763465346C346F3470346534B2
:1006740064342034423479342E342E342E342E34DF
:02068400003440
:10068600503472346F346A346534633474340034ED
:060696004F344E34003425
:02400E004A2F37
:00000001FF
